{
  "_format": "hh-sol-artifact-1",
  "contractName": "NFTSTORE",
  "sourceName": "contracts/NFTmarketplace.sol",
  "abi": [
    {
      "inputs": [],
      "stateMutability": "nonpayable",
      "type": "constructor"
    },
    {
      "inputs": [
        {
          "internalType": "address",
          "name": "sender",
          "type": "address"
        },
        {
          "internalType": "uint256",
          "name": "tokenId",
          "type": "uint256"
        },
        {
          "internalType": "address",
          "name": "owner",
          "type": "address"
        }
      ],
      "name": "ERC721IncorrectOwner",
      "type": "error"
    },
    {
      "inputs": [
        {
          "internalType": "address",
          "name": "operator",
          "type": "address"
        },
        {
          "internalType": "uint256",
          "name": "tokenId",
          "type": "uint256"
        }
      ],
      "name": "ERC721InsufficientApproval",
      "type": "error"
    },
    {
      "inputs": [
        {
          "internalType": "address",
          "name": "approver",
          "type": "address"
        }
      ],
      "name": "ERC721InvalidApprover",
      "type": "error"
    },
    {
      "inputs": [
        {
          "internalType": "address",
          "name": "operator",
          "type": "address"
        }
      ],
      "name": "ERC721InvalidOperator",
      "type": "error"
    },
    {
      "inputs": [
        {
          "internalType": "address",
          "name": "owner",
          "type": "address"
        }
      ],
      "name": "ERC721InvalidOwner",
      "type": "error"
    },
    {
      "inputs": [
        {
          "internalType": "address",
          "name": "receiver",
          "type": "address"
        }
      ],
      "name": "ERC721InvalidReceiver",
      "type": "error"
    },
    {
      "inputs": [
        {
          "internalType": "address",
          "name": "sender",
          "type": "address"
        }
      ],
      "name": "ERC721InvalidSender",
      "type": "error"
    },
    {
      "inputs": [
        {
          "internalType": "uint256",
          "name": "tokenId",
          "type": "uint256"
        }
      ],
      "name": "ERC721NonexistentToken",
      "type": "error"
    },
    {
      "anonymous": false,
      "inputs": [
        {
          "indexed": true,
          "internalType": "address",
          "name": "owner",
          "type": "address"
        },
        {
          "indexed": true,
          "internalType": "address",
          "name": "approved",
          "type": "address"
        },
        {
          "indexed": true,
          "internalType": "uint256",
          "name": "tokenId",
          "type": "uint256"
        }
      ],
      "name": "Approval",
      "type": "event"
    },
    {
      "anonymous": false,
      "inputs": [
        {
          "indexed": true,
          "internalType": "address",
          "name": "owner",
          "type": "address"
        },
        {
          "indexed": true,
          "internalType": "address",
          "name": "operator",
          "type": "address"
        },
        {
          "indexed": false,
          "internalType": "bool",
          "name": "approved",
          "type": "bool"
        }
      ],
      "name": "ApprovalForAll",
      "type": "event"
    },
    {
      "anonymous": false,
      "inputs": [
        {
          "indexed": false,
          "internalType": "uint256",
          "name": "_fromTokenId",
          "type": "uint256"
        },
        {
          "indexed": false,
          "internalType": "uint256",
          "name": "_toTokenId",
          "type": "uint256"
        }
      ],
      "name": "BatchMetadataUpdate",
      "type": "event"
    },
    {
      "anonymous": false,
      "inputs": [
        {
          "indexed": false,
          "internalType": "uint256",
          "name": "_tokenId",
          "type": "uint256"
        }
      ],
      "name": "MetadataUpdate",
      "type": "event"
    },
    {
      "anonymous": false,
      "inputs": [
        {
          "indexed": true,
          "internalType": "address",
          "name": "from",
          "type": "address"
        },
        {
          "indexed": true,
          "internalType": "address",
          "name": "to",
          "type": "address"
        },
        {
          "indexed": true,
          "internalType": "uint256",
          "name": "tokenId",
          "type": "uint256"
        }
      ],
      "name": "Transfer",
      "type": "event"
    },
    {
      "inputs": [
        {
          "internalType": "address",
          "name": "to",
          "type": "address"
        },
        {
          "internalType": "uint256",
          "name": "tokenId",
          "type": "uint256"
        }
      ],
      "name": "approve",
      "outputs": [],
      "stateMutability": "nonpayable",
      "type": "function"
    },
    {
      "inputs": [
        {
          "internalType": "address",
          "name": "owner",
          "type": "address"
        }
      ],
      "name": "balanceOf",
      "outputs": [
        {
          "internalType": "uint256",
          "name": "",
          "type": "uint256"
        }
      ],
      "stateMutability": "view",
      "type": "function"
    },
    {
      "inputs": [
        {
          "internalType": "string",
          "name": "_tokenURI",
          "type": "string"
        },
        {
          "internalType": "uint256",
          "name": "_price",
          "type": "uint256"
        }
      ],
      "name": "createToken",
      "outputs": [
        {
          "internalType": "uint256",
          "name": "",
          "type": "uint256"
        }
      ],
      "stateMutability": "nonpayable",
      "type": "function"
    },
    {
      "inputs": [
        {
          "internalType": "uint256",
          "name": "tokenId",
          "type": "uint256"
        }
      ],
      "name": "executeSale",
      "outputs": [],
      "stateMutability": "payable",
      "type": "function"
    },
    {
      "inputs": [],
      "name": "getAllListedNFTs",
      "outputs": [
        {
          "components": [
            {
              "internalType": "uint256",
              "name": "tokenId",
              "type": "uint256"
            },
            {
              "internalType": "address payable",
              "name": "owner",
              "type": "address"
            },
            {
              "internalType": "address payable",
              "name": "seller",
              "type": "address"
            },
            {
              "internalType": "uint256",
              "name": "price",
              "type": "uint256"
            }
          ],
          "internalType": "struct NFTSTORE.NFTListing[]",
          "name": "",
          "type": "tuple[]"
        }
      ],
      "stateMutability": "view",
      "type": "function"
    },
    {
      "inputs": [
        {
          "internalType": "uint256",
          "name": "tokenId",
          "type": "uint256"
        }
      ],
      "name": "getApproved",
      "outputs": [
        {
          "internalType": "address",
          "name": "",
          "type": "address"
        }
      ],
      "stateMutability": "view",
      "type": "function"
    },
    {
      "inputs": [],
      "name": "getCurrentTokenId",
      "outputs": [
        {
          "internalType": "uint256",
          "name": "",
          "type": "uint256"
        }
      ],
      "stateMutability": "view",
      "type": "function"
    },
    {
      "inputs": [],
      "name": "getListingFeePercent",
      "outputs": [
        {
          "internalType": "uint256",
          "name": "",
          "type": "uint256"
        }
      ],
      "stateMutability": "view",
      "type": "function"
    },
    {
      "inputs": [],
      "name": "getMyNFTs",
      "outputs": [
        {
          "components": [
            {
              "internalType": "uint256",
              "name": "tokenId",
              "type": "uint256"
            },
            {
              "internalType": "address payable",
              "name": "owner",
              "type": "address"
            },
            {
              "internalType": "address payable",
              "name": "seller",
              "type": "address"
            },
            {
              "internalType": "uint256",
              "name": "price",
              "type": "uint256"
            }
          ],
          "internalType": "struct NFTSTORE.NFTListing[]",
          "name": "",
          "type": "tuple[]"
        }
      ],
      "stateMutability": "view",
      "type": "function"
    },
    {
      "inputs": [
        {
          "internalType": "uint256",
          "name": "_tokenId",
          "type": "uint256"
        }
      ],
      "name": "getNFTListing",
      "outputs": [
        {
          "components": [
            {
              "internalType": "uint256",
              "name": "tokenId",
              "type": "uint256"
            },
            {
              "internalType": "address payable",
              "name": "owner",
              "type": "address"
            },
            {
              "internalType": "address payable",
              "name": "seller",
              "type": "address"
            },
            {
              "internalType": "uint256",
              "name": "price",
              "type": "uint256"
            }
          ],
          "internalType": "struct NFTSTORE.NFTListing",
          "name": "",
          "type": "tuple"
        }
      ],
      "stateMutability": "view",
      "type": "function"
    },
    {
      "inputs": [
        {
          "internalType": "address",
          "name": "owner",
          "type": "address"
        },
        {
          "internalType": "address",
          "name": "operator",
          "type": "address"
        }
      ],
      "name": "isApprovedForAll",
      "outputs": [
        {
          "internalType": "bool",
          "name": "",
          "type": "bool"
        }
      ],
      "stateMutability": "view",
      "type": "function"
    },
    {
      "inputs": [],
      "name": "listingFeePercent",
      "outputs": [
        {
          "internalType": "uint256",
          "name": "",
          "type": "uint256"
        }
      ],
      "stateMutability": "view",
      "type": "function"
    },
    {
      "inputs": [],
      "name": "marketplaceOwner",
      "outputs": [
        {
          "internalType": "address payable",
          "name": "",
          "type": "address"
        }
      ],
      "stateMutability": "view",
      "type": "function"
    },
    {
      "inputs": [],
      "name": "name",
      "outputs": [
        {
          "internalType": "string",
          "name": "",
          "type": "string"
        }
      ],
      "stateMutability": "view",
      "type": "function"
    },
    {
      "inputs": [
        {
          "internalType": "uint256",
          "name": "tokenId",
          "type": "uint256"
        }
      ],
      "name": "ownerOf",
      "outputs": [
        {
          "internalType": "address",
          "name": "",
          "type": "address"
        }
      ],
      "stateMutability": "view",
      "type": "function"
    },
    {
      "inputs": [
        {
          "internalType": "address",
          "name": "from",
          "type": "address"
        },
        {
          "internalType": "address",
          "name": "to",
          "type": "address"
        },
        {
          "internalType": "uint256",
          "name": "tokenId",
          "type": "uint256"
        }
      ],
      "name": "safeTransferFrom",
      "outputs": [],
      "stateMutability": "nonpayable",
      "type": "function"
    },
    {
      "inputs": [
        {
          "internalType": "address",
          "name": "from",
          "type": "address"
        },
        {
          "internalType": "address",
          "name": "to",
          "type": "address"
        },
        {
          "internalType": "uint256",
          "name": "tokenId",
          "type": "uint256"
        },
        {
          "internalType": "bytes",
          "name": "data",
          "type": "bytes"
        }
      ],
      "name": "safeTransferFrom",
      "outputs": [],
      "stateMutability": "nonpayable",
      "type": "function"
    },
    {
      "inputs": [
        {
          "internalType": "address",
          "name": "operator",
          "type": "address"
        },
        {
          "internalType": "bool",
          "name": "approved",
          "type": "bool"
        }
      ],
      "name": "setApprovalForAll",
      "outputs": [],
      "stateMutability": "nonpayable",
      "type": "function"
    },
    {
      "inputs": [
        {
          "internalType": "bytes4",
          "name": "interfaceId",
          "type": "bytes4"
        }
      ],
      "name": "supportsInterface",
      "outputs": [
        {
          "internalType": "bool",
          "name": "",
          "type": "bool"
        }
      ],
      "stateMutability": "view",
      "type": "function"
    },
    {
      "inputs": [],
      "name": "symbol",
      "outputs": [
        {
          "internalType": "string",
          "name": "",
          "type": "string"
        }
      ],
      "stateMutability": "view",
      "type": "function"
    },
    {
      "inputs": [
        {
          "internalType": "uint256",
          "name": "tokenId",
          "type": "uint256"
        }
      ],
      "name": "tokenURI",
      "outputs": [
        {
          "internalType": "string",
          "name": "",
          "type": "string"
        }
      ],
      "stateMutability": "view",
      "type": "function"
    },
    {
      "inputs": [
        {
          "internalType": "address",
          "name": "from",
          "type": "address"
        },
        {
          "internalType": "address",
          "name": "to",
          "type": "address"
        },
        {
          "internalType": "uint256",
          "name": "tokenId",
          "type": "uint256"
        }
      ],
      "name": "transferFrom",
      "outputs": [],
      "stateMutability": "nonpayable",
      "type": "function"
    },
    {
      "inputs": [
        {
          "internalType": "uint256",
          "name": "tokenId",
          "type": "uint256"
        }
      ],
      "name": "unlistNFT",
      "outputs": [],
      "stateMutability": "nonpayable",
      "type": "function"
    },
    {
      "inputs": [
        {
          "internalType": "uint256",
          "name": "_listingFeePercent",
          "type": "uint256"
        }
      ],
      "name": "updateListingFeePercent",
      "outputs": [],
      "stateMutability": "nonpayable",
      "type": "function"
    }
  ],
  "bytecode": "0x6080604052601460085534801561001557600080fd5b506040518060400160405280600881526020017f4e465453544f52450000000000000000000000000000000000000000000000008152506040518060400160405280600481526020017f4e465453000000000000000000000000000000000000000000000000000000008152508160009081610091919061033a565b5080600190816100a1919061033a565b50505033600760006101000a81548173ffffffffffffffffffffffffffffffffffffffff021916908373ffffffffffffffffffffffffffffffffffffffff16021790555061040c565b600081519050919050565b7f4e487b7100000000000000000000000000000000000000000000000000000000600052604160045260246000fd5b7f4e487b7100000000000000000000000000000000000000000000000000000000600052602260045260246000fd5b6000600282049050600182168061016b57607f821691505b60208210810361017e5761017d610124565b5b50919050565b60008190508160005260206000209050919050565b60006020601f8301049050919050565b600082821b905092915050565b6000600883026101e67fffffffffffffffffffffffffffffffffffffffffffffffffffffffffffffffff826101a9565b6101f086836101a9565b95508019841693508086168417925050509392505050565b6000819050919050565b6000819050919050565b600061023761023261022d84610208565b610212565b610208565b9050919050565b6000819050919050565b6102518361021c565b61026561025d8261023e565b8484546101b6565b825550505050565b600090565b61027a61026d565b610285818484610248565b505050565b5b818110156102a95761029e600082610272565b60018101905061028b565b5050565b601f8211156102ee576102bf81610184565b6102c884610199565b810160208510156102d7578190505b6102eb6102e385610199565b83018261028a565b50505b505050565b600082821c905092915050565b6000610311600019846008026102f3565b1980831691505092915050565b600061032a8383610300565b9150826002028217905092915050565b610343826100ea565b67ffffffffffffffff81111561035c5761035b6100f5565b5b6103668254610153565b6103718282856102ad565b600060209050601f8311600181146103a45760008415610392578287015190505b61039c858261031e565b865550610404565b601f1984166103b286610184565b60005b828110156103da578489015182556001820191506020850194506020810190506103b5565b868310156103f757848901516103f3601f891682610300565b8355505b6001600288020188555050505b505050505050565b61392d8061041b6000396000f3fe60806040526004361061014b5760003560e01c80636352211e116100b65780639b1225c41161006f5780639b1225c4146104ba578063a22cb465146104d6578063ac6a9185146104ff578063b88d4fde14610528578063c87b56dd14610551578063e985e9c51461058e5761014b565b80636352211e14610384578063650025a0146103c157806370a08231146103ec57806372b3b6201461042957806395d89b4114610466578063961f0944146104915761014b565b806323b872dd1161010857806323b872dd1461028657806342842e0e146102af5780634b58ffaa146102d857806356189236146103035780636151ff2e1461032e578063629cb2e4146103595761014b565b806301ffc9a71461015057806306fc12451461018d57806306fdde03146101b8578063081812fc146101e3578063095ea7b3146102205780630ea59c4b14610249575b600080fd5b34801561015c57600080fd5b5061017760048036038101906101729190612869565b6105cb565b60405161018491906128b1565b60405180910390f35b34801561019957600080fd5b506101a261062c565b6040516101af91906128e5565b60405180910390f35b3480156101c457600080fd5b506101cd610636565b6040516101da9190612990565b60405180910390f35b3480156101ef57600080fd5b5061020a600480360381019061020591906129de565b6106c8565b6040516102179190612a4c565b60405180910390f35b34801561022c57600080fd5b5061024760048036038101906102429190612a93565b6106e4565b005b34801561025557600080fd5b50610270600480360381019061026b91906129de565b6106fa565b60405161027d9190612b58565b60405180910390f35b34801561029257600080fd5b506102ad60048036038101906102a89190612b73565b6107e7565b005b3480156102bb57600080fd5b506102d660048036038101906102d19190612b73565b6108e9565b005b3480156102e457600080fd5b506102ed610909565b6040516102fa9190612cca565b60405180910390f35b34801561030f57600080fd5b50610318610ab0565b60405161032591906128e5565b60405180910390f35b34801561033a57600080fd5b50610343610aba565b60405161035091906128e5565b60405180910390f35b34801561036557600080fd5b5061036e610ac0565b60405161037b9190612cca565b60405180910390f35b34801561039057600080fd5b506103ab60048036038101906103a691906129de565b610e6e565b6040516103b89190612a4c565b60405180910390f35b3480156103cd57600080fd5b506103d6610e80565b6040516103e39190612cfb565b60405180910390f35b3480156103f857600080fd5b50610413600480360381019061040e9190612d16565b610ea6565b60405161042091906128e5565b60405180910390f35b34801561043557600080fd5b50610450600480360381019061044b9190612e78565b610f60565b60405161045d91906128e5565b60405180910390f35b34801561047257600080fd5b5061047b610feb565b6040516104889190612990565b60405180910390f35b34801561049d57600080fd5b506104b860048036038101906104b391906129de565b61107d565b005b6104d460048036038101906104cf91906129de565b61119e565b005b3480156104e257600080fd5b506104fd60048036038101906104f89190612f00565b611393565b005b34801561050b57600080fd5b50610526600480360381019061052191906129de565b6113a9565b005b34801561053457600080fd5b5061054f600480360381019061054a9190612fe1565b611443565b005b34801561055d57600080fd5b50610578600480360381019061057391906129de565b611468565b6040516105859190612990565b60405180910390f35b34801561059a57600080fd5b506105b560048036038101906105b09190613064565b61157b565b6040516105c291906128b1565b60405180910390f35b6000634906490660e01b7bffffffffffffffffffffffffffffffffffffffffffffffffffffffff1916827bffffffffffffffffffffffffffffffffffffffffffffffffffffffff1916148061062557506106248261160f565b5b9050919050565b6000600854905090565b606060008054610645906130d3565b80601f0160208091040260200160405190810160405280929190818152602001828054610671906130d3565b80156106be5780601f10610693576101008083540402835291602001916106be565b820191906000526020600020905b8154815290600101906020018083116106a157829003601f168201915b5050505050905090565b60006106d3826116f1565b506106dd82611779565b9050919050565b6106f682826106f16117b6565b6117be565b5050565b6107026127a9565b600b6000838152602001908152602001600020604051806080016040529081600082015481526020016001820160009054906101000a900473ffffffffffffffffffffffffffffffffffffffff1673ffffffffffffffffffffffffffffffffffffffff1673ffffffffffffffffffffffffffffffffffffffff1681526020016002820160009054906101000a900473ffffffffffffffffffffffffffffffffffffffff1673ffffffffffffffffffffffffffffffffffffffff1673ffffffffffffffffffffffffffffffffffffffff1681526020016003820154815250509050919050565b600073ffffffffffffffffffffffffffffffffffffffff168273ffffffffffffffffffffffffffffffffffffffff16036108595760006040517f64a0ae920000000000000000000000000000000000000000000000000000000081526004016108509190612a4c565b60405180910390fd5b600061086d83836108686117b6565b6117d0565b90508373ffffffffffffffffffffffffffffffffffffffff168173ffffffffffffffffffffffffffffffffffffffff16146108e3578382826040517f64283d7b0000000000000000000000000000000000000000000000000000000081526004016108da93929190613104565b60405180910390fd5b50505050565b61090483838360405180602001604052806000815250611443565b505050565b60606000600954905060008167ffffffffffffffff81111561092e5761092d612d4d565b5b60405190808252806020026020018201604052801561096757816020015b6109546127a9565b81526020019060019003908161094c5790505b5090506000805b83811015610aa6576000600182610985919061316a565b90506000600b6000838152602001908152602001600020905080604051806080016040529081600082015481526020016001820160009054906101000a900473ffffffffffffffffffffffffffffffffffffffff1673ffffffffffffffffffffffffffffffffffffffff1673ffffffffffffffffffffffffffffffffffffffff1681526020016002820160009054906101000a900473ffffffffffffffffffffffffffffffffffffffff1673ffffffffffffffffffffffffffffffffffffffff1673ffffffffffffffffffffffffffffffffffffffff168152602001600382015481525050858581518110610a7d57610a7c61319e565b5b6020026020010181905250600184610a95919061316a565b93505050808060010191505061096e565b5081935050505090565b6000600954905090565b60085481565b60606000600954905060008060005b83811015610be1573373ffffffffffffffffffffffffffffffffffffffff16600b6000600184610aff919061316a565b815260200190815260200160002060010160009054906101000a900473ffffffffffffffffffffffffffffffffffffffff1673ffffffffffffffffffffffffffffffffffffffff161480610bc057503373ffffffffffffffffffffffffffffffffffffffff16600b6000600184610b76919061316a565b815260200190815260200160002060020160009054906101000a900473ffffffffffffffffffffffffffffffffffffffff1673ffffffffffffffffffffffffffffffffffffffff16145b15610bd4578280610bd0906131cd565b9350505b8080600101915050610acf565b5060008267ffffffffffffffff811115610bfe57610bfd612d4d565b5b604051908082528060200260200182016040528015610c3757816020015b610c246127a9565b815260200190600190039081610c1c5790505b50905060005b84811015610e63573373ffffffffffffffffffffffffffffffffffffffff16600b6000600184610c6d919061316a565b815260200190815260200160002060010160009054906101000a900473ffffffffffffffffffffffffffffffffffffffff1673ffffffffffffffffffffffffffffffffffffffff161480610d2e57503373ffffffffffffffffffffffffffffffffffffffff16600b6000600184610ce4919061316a565b815260200190815260200160002060020160009054906101000a900473ffffffffffffffffffffffffffffffffffffffff1673ffffffffffffffffffffffffffffffffffffffff16145b15610e56576000600182610d42919061316a565b90506000600b6000838152602001908152602001600020905080604051806080016040529081600082015481526020016001820160009054906101000a900473ffffffffffffffffffffffffffffffffffffffff1673ffffffffffffffffffffffffffffffffffffffff1673ffffffffffffffffffffffffffffffffffffffff1681526020016002820160009054906101000a900473ffffffffffffffffffffffffffffffffffffffff1673ffffffffffffffffffffffffffffffffffffffff1673ffffffffffffffffffffffffffffffffffffffff168152602001600382015481525050848681518110610e3a57610e3961319e565b5b60200260200101819052508480610e50906131cd565b95505050505b8080600101915050610c3d565b508094505050505090565b6000610e79826116f1565b9050919050565b600760009054906101000a900473ffffffffffffffffffffffffffffffffffffffff1681565b60008073ffffffffffffffffffffffffffffffffffffffff168273ffffffffffffffffffffffffffffffffffffffff1603610f195760006040517f89c62b64000000000000000000000000000000000000000000000000000000008152600401610f109190612a4c565b60405180910390fd5b600360008373ffffffffffffffffffffffffffffffffffffffff1673ffffffffffffffffffffffffffffffffffffffff168152602001908152602001600020549050919050565b6000808211610fa4576040517f08c379a0000000000000000000000000000000000000000000000000000000008152600401610f9b90613261565b60405180910390fd5b60096000815480929190610fb7906131cd565b919050555060006009549050610fcd33826119ea565b610fd78185611a08565b610fe18184611a64565b8091505092915050565b606060018054610ffa906130d3565b80601f0160208091040260200160405190810160405280929190818152602001828054611026906130d3565b80156110735780601f1061104857610100808354040283529160200191611073565b820191906000526020600020905b81548152906001019060200180831161105657829003601f168201915b5050505050905090565b6000600b600083815260200190815260200160002090503373ffffffffffffffffffffffffffffffffffffffff168160020160009054906101000a900473ffffffffffffffffffffffffffffffffffffffff1673ffffffffffffffffffffffffffffffffffffffff1614611126576040517f08c379a000000000000000000000000000000000000000000000000000000000815260040161111d906132f3565b60405180910390fd5b600b60008381526020019081526020016000206000808201600090556001820160006101000a81549073ffffffffffffffffffffffffffffffffffffffff02191690556002820160006101000a81549073ffffffffffffffffffffffffffffffffffffffff0219169055600382016000905550505050565b6000600b6000838152602001908152602001600020905060008160030154905060008260020160009054906101000a900473ffffffffffffffffffffffffffffffffffffffff169050813414611229576040517f08c379a000000000000000000000000000000000000000000000000000000000815260040161122090613385565b60405180910390fd5b338360020160006101000a81548173ffffffffffffffffffffffffffffffffffffffff021916908373ffffffffffffffffffffffffffffffffffffffff160217905550600a600081548092919061127f906131cd565b91905055506112b38360010160009054906101000a900473ffffffffffffffffffffffffffffffffffffffff163386611b6d565b60006064600854846112c591906133a5565b6112cf9190613416565b9050600760009054906101000a900473ffffffffffffffffffffffffffffffffffffffff1673ffffffffffffffffffffffffffffffffffffffff166108fc829081150290604051600060405180830381858888f19350505050158015611339573d6000803e3d6000fd5b508173ffffffffffffffffffffffffffffffffffffffff166108fc82346113609190613447565b9081150290604051600060405180830381858888f1935050505015801561138b573d6000803e3d6000fd5b505050505050565b6113a561139e6117b6565b8383611cda565b5050565b600760009054906101000a900473ffffffffffffffffffffffffffffffffffffffff1673ffffffffffffffffffffffffffffffffffffffff163373ffffffffffffffffffffffffffffffffffffffff1614611439576040517f08c379a0000000000000000000000000000000000000000000000000000000008152600401611430906134ed565b60405180910390fd5b8060088190555050565b61144e8484846107e7565b6114626114596117b6565b85858585611e49565b50505050565b6060611473826116f1565b506000600660008481526020019081526020016000208054611494906130d3565b80601f01602080910402602001604051908101604052809291908181526020018280546114c0906130d3565b801561150d5780601f106114e25761010080835404028352916020019161150d565b820191906000526020600020905b8154815290600101906020018083116114f057829003601f168201915b50505050509050600061151e611ffa565b90506000815103611533578192505050611576565b600082511115611568578082604051602001611550929190613549565b60405160208183030381529060405292505050611576565b61157184612011565b925050505b919050565b6000600560008473ffffffffffffffffffffffffffffffffffffffff1673ffffffffffffffffffffffffffffffffffffffff16815260200190815260200160002060008373ffffffffffffffffffffffffffffffffffffffff1673ffffffffffffffffffffffffffffffffffffffff16815260200190815260200160002060009054906101000a900460ff16905092915050565b60007f80ac58cd000000000000000000000000000000000000000000000000000000007bffffffffffffffffffffffffffffffffffffffffffffffffffffffff1916827bffffffffffffffffffffffffffffffffffffffffffffffffffffffff191614806116da57507f5b5e139f000000000000000000000000000000000000000000000000000000007bffffffffffffffffffffffffffffffffffffffffffffffffffffffff1916827bffffffffffffffffffffffffffffffffffffffffffffffffffffffff1916145b806116ea57506116e98261207a565b5b9050919050565b6000806116fd836120e4565b9050600073ffffffffffffffffffffffffffffffffffffffff168173ffffffffffffffffffffffffffffffffffffffff160361177057826040517f7e27328900000000000000000000000000000000000000000000000000000000815260040161176791906128e5565b60405180910390fd5b80915050919050565b60006004600083815260200190815260200160002060009054906101000a900473ffffffffffffffffffffffffffffffffffffffff169050919050565b600033905090565b6117cb8383836001612121565b505050565b6000806117dc846120e4565b9050600073ffffffffffffffffffffffffffffffffffffffff168373ffffffffffffffffffffffffffffffffffffffff161461181e5761181d8184866122e6565b5b600073ffffffffffffffffffffffffffffffffffffffff168173ffffffffffffffffffffffffffffffffffffffff16146118af57611860600085600080612121565b6001600360008373ffffffffffffffffffffffffffffffffffffffff1673ffffffffffffffffffffffffffffffffffffffff168152602001908152602001600020600082825403925050819055505b600073ffffffffffffffffffffffffffffffffffffffff168573ffffffffffffffffffffffffffffffffffffffff1614611932576001600360008773ffffffffffffffffffffffffffffffffffffffff1673ffffffffffffffffffffffffffffffffffffffff168152602001908152602001600020600082825401925050819055505b846002600086815260200190815260200160002060006101000a81548173ffffffffffffffffffffffffffffffffffffffff021916908373ffffffffffffffffffffffffffffffffffffffff160217905550838573ffffffffffffffffffffffffffffffffffffffff168273ffffffffffffffffffffffffffffffffffffffff167fddf252ad1be2c89b69c2b068fc378daa952ba7f163c4a11628f55a4df523b3ef60405160405180910390a4809150509392505050565b611a048282604051806020016040528060008152506123aa565b5050565b80600660008481526020019081526020016000209081611a289190613719565b507ff8e1a15aba9398e019f0b49df1a4fde98ee17ae345cb5f6b5e2c27f5033e8ce782604051611a5891906128e5565b60405180910390a15050565b60405180608001604052808381526020013373ffffffffffffffffffffffffffffffffffffffff1681526020013373ffffffffffffffffffffffffffffffffffffffff16815260200182815250600b60008481526020019081526020016000206000820151816000015560208201518160010160006101000a81548173ffffffffffffffffffffffffffffffffffffffff021916908373ffffffffffffffffffffffffffffffffffffffff16021790555060408201518160020160006101000a81548173ffffffffffffffffffffffffffffffffffffffff021916908373ffffffffffffffffffffffffffffffffffffffff160217905550606082015181600301559050505050565b600073ffffffffffffffffffffffffffffffffffffffff168273ffffffffffffffffffffffffffffffffffffffff1603611bdf5760006040517f64a0ae92000000000000000000000000000000000000000000000000000000008152600401611bd69190612a4c565b60405180910390fd5b6000611bed838360006117d0565b9050600073ffffffffffffffffffffffffffffffffffffffff168173ffffffffffffffffffffffffffffffffffffffff1603611c6057816040517f7e273289000000000000000000000000000000000000000000000000000000008152600401611c5791906128e5565b60405180910390fd5b8373ffffffffffffffffffffffffffffffffffffffff168173ffffffffffffffffffffffffffffffffffffffff1614611cd4578382826040517f64283d7b000000000000000000000000000000000000000000000000000000008152600401611ccb93929190613104565b60405180910390fd5b50505050565b600073ffffffffffffffffffffffffffffffffffffffff168273ffffffffffffffffffffffffffffffffffffffff1603611d4b57816040517f5b08ba18000000000000000000000000000000000000000000000000000000008152600401611d429190612a4c565b60405180910390fd5b80600560008573ffffffffffffffffffffffffffffffffffffffff1673ffffffffffffffffffffffffffffffffffffffff16815260200190815260200160002060008473ffffffffffffffffffffffffffffffffffffffff1673ffffffffffffffffffffffffffffffffffffffff16815260200190815260200160002060006101000a81548160ff0219169083151502179055508173ffffffffffffffffffffffffffffffffffffffff168373ffffffffffffffffffffffffffffffffffffffff167f17307eab39ab6107e8899845ad3d59bd9653f200f220920489ca2b5937696c3183604051611e3c91906128b1565b60405180910390a3505050565b60008373ffffffffffffffffffffffffffffffffffffffff163b1115611ff3578273ffffffffffffffffffffffffffffffffffffffff1663150b7a02868685856040518563ffffffff1660e01b8152600401611ea89493929190613840565b6020604051808303816000875af1925050508015611ee457506040513d601f19601f82011682018060405250810190611ee191906138a1565b60015b611f68573d8060008114611f14576040519150601f19603f3d011682016040523d82523d6000602084013e611f19565b606091505b506000815103611f6057836040517f64a0ae92000000000000000000000000000000000000000000000000000000008152600401611f579190612a4c565b60405180910390fd5b805181602001fd5b63150b7a0260e01b7bffffffffffffffffffffffffffffffffffffffffffffffffffffffff1916817bffffffffffffffffffffffffffffffffffffffffffffffffffffffff191614611ff157836040517f64a0ae92000000000000000000000000000000000000000000000000000000008152600401611fe89190612a4c565b60405180910390fd5b505b5050505050565b606060405180602001604052806000815250905090565b606061201c826116f1565b506000612027611ffa565b905060008151116120475760405180602001604052806000815250612072565b80612051846123ce565b604051602001612062929190613549565b6040516020818303038152906040525b915050919050565b60007f01ffc9a7000000000000000000000000000000000000000000000000000000007bffffffffffffffffffffffffffffffffffffffffffffffffffffffff1916827bffffffffffffffffffffffffffffffffffffffffffffffffffffffff1916149050919050565b60006002600083815260200190815260200160002060009054906101000a900473ffffffffffffffffffffffffffffffffffffffff169050919050565b808061215a5750600073ffffffffffffffffffffffffffffffffffffffff168273ffffffffffffffffffffffffffffffffffffffff1614155b1561228e57600061216a846116f1565b9050600073ffffffffffffffffffffffffffffffffffffffff168373ffffffffffffffffffffffffffffffffffffffff16141580156121d557508273ffffffffffffffffffffffffffffffffffffffff168173ffffffffffffffffffffffffffffffffffffffff1614155b80156121e857506121e6818461157b565b155b1561222a57826040517fa9fbf51f0000000000000000000000000000000000000000000000000000000081526004016122219190612a4c565b60405180910390fd5b811561228c57838573ffffffffffffffffffffffffffffffffffffffff168273ffffffffffffffffffffffffffffffffffffffff167f8c5be1e5ebec7d5bd14f71427d1e84f3dd0314c0f7b2291e5b200ac8c7c3b92560405160405180910390a45b505b836004600085815260200190815260200160002060006101000a81548173ffffffffffffffffffffffffffffffffffffffff021916908373ffffffffffffffffffffffffffffffffffffffff16021790555050505050565b6122f183838361249c565b6123a557600073ffffffffffffffffffffffffffffffffffffffff168373ffffffffffffffffffffffffffffffffffffffff160361236657806040517f7e27328900000000000000000000000000000000000000000000000000000000815260040161235d91906128e5565b60405180910390fd5b81816040517f177e802f00000000000000000000000000000000000000000000000000000000815260040161239c9291906138ce565b60405180910390fd5b505050565b6123b4838361255d565b6123c96123bf6117b6565b6000858585611e49565b505050565b6060600060016123dd84612656565b01905060008167ffffffffffffffff8111156123fc576123fb612d4d565b5b6040519080825280601f01601f19166020018201604052801561242e5781602001600182028036833780820191505090505b509050600082602001820190505b600115612491578080600190039150507f3031323334353637383961626364656600000000000000000000000000000000600a86061a8153600a8581612485576124846133e7565b5b0494506000850361243c575b819350505050919050565b60008073ffffffffffffffffffffffffffffffffffffffff168373ffffffffffffffffffffffffffffffffffffffff161415801561255457508273ffffffffffffffffffffffffffffffffffffffff168473ffffffffffffffffffffffffffffffffffffffff1614806125155750612514848461157b565b5b8061255357508273ffffffffffffffffffffffffffffffffffffffff1661253b83611779565b73ffffffffffffffffffffffffffffffffffffffff16145b5b90509392505050565b600073ffffffffffffffffffffffffffffffffffffffff168273ffffffffffffffffffffffffffffffffffffffff16036125cf5760006040517f64a0ae920000000000000000000000000000000000000000000000000000000081526004016125c69190612a4c565b60405180910390fd5b60006125dd838360006117d0565b9050600073ffffffffffffffffffffffffffffffffffffffff168173ffffffffffffffffffffffffffffffffffffffff16146126515760006040517f73c6ac6e0000000000000000000000000000000000000000000000000000000081526004016126489190612a4c565b60405180910390fd5b505050565b600080600090507a184f03e93ff9f4daa797ed6e38ed64bf6a1f01000000000000000083106126b4577a184f03e93ff9f4daa797ed6e38ed64bf6a1f01000000000000000083816126aa576126a96133e7565b5b0492506040810190505b6d04ee2d6d415b85acef810000000083106126f1576d04ee2d6d415b85acef810000000083816126e7576126e66133e7565b5b0492506020810190505b662386f26fc10000831061272057662386f26fc100008381612716576127156133e7565b5b0492506010810190505b6305f5e1008310612749576305f5e100838161273f5761273e6133e7565b5b0492506008810190505b612710831061276e576127108381612764576127636133e7565b5b0492506004810190505b606483106127915760648381612787576127866133e7565b5b0492506002810190505b600a83106127a0576001810190505b80915050919050565b604051806080016040528060008152602001600073ffffffffffffffffffffffffffffffffffffffff168152602001600073ffffffffffffffffffffffffffffffffffffffff168152602001600081525090565b6000604051905090565b600080fd5b600080fd5b60007fffffffff0000000000000000000000000000000000000000000000000000000082169050919050565b61284681612811565b811461285157600080fd5b50565b6000813590506128638161283d565b92915050565b60006020828403121561287f5761287e612807565b5b600061288d84828501612854565b91505092915050565b60008115159050919050565b6128ab81612896565b82525050565b60006020820190506128c660008301846128a2565b92915050565b6000819050919050565b6128df816128cc565b82525050565b60006020820190506128fa60008301846128d6565b92915050565b600081519050919050565b600082825260208201905092915050565b60005b8381101561293a57808201518184015260208101905061291f565b60008484015250505050565b6000601f19601f8301169050919050565b600061296282612900565b61296c818561290b565b935061297c81856020860161291c565b61298581612946565b840191505092915050565b600060208201905081810360008301526129aa8184612957565b905092915050565b6129bb816128cc565b81146129c657600080fd5b50565b6000813590506129d8816129b2565b92915050565b6000602082840312156129f4576129f3612807565b5b6000612a02848285016129c9565b91505092915050565b600073ffffffffffffffffffffffffffffffffffffffff82169050919050565b6000612a3682612a0b565b9050919050565b612a4681612a2b565b82525050565b6000602082019050612a616000830184612a3d565b92915050565b612a7081612a2b565b8114612a7b57600080fd5b50565b600081359050612a8d81612a67565b92915050565b60008060408385031215612aaa57612aa9612807565b5b6000612ab885828601612a7e565b9250506020612ac9858286016129c9565b9150509250929050565b612adc816128cc565b82525050565b6000612aed82612a0b565b9050919050565b612afd81612ae2565b82525050565b608082016000820151612b196000850182612ad3565b506020820151612b2c6020850182612af4565b506040820151612b3f6040850182612af4565b506060820151612b526060850182612ad3565b50505050565b6000608082019050612b6d6000830184612b03565b92915050565b600080600060608486031215612b8c57612b8b612807565b5b6000612b9a86828701612a7e565b9350506020612bab86828701612a7e565b9250506040612bbc868287016129c9565b9150509250925092565b600081519050919050565b600082825260208201905092915050565b6000819050602082019050919050565b608082016000820151612c086000850182612ad3565b506020820151612c1b6020850182612af4565b506040820151612c2e6040850182612af4565b506060820151612c416060850182612ad3565b50505050565b6000612c538383612bf2565b60808301905092915050565b6000602082019050919050565b6000612c7782612bc6565b612c818185612bd1565b9350612c8c83612be2565b8060005b83811015612cbd578151612ca48882612c47565b9750612caf83612c5f565b925050600181019050612c90565b5085935050505092915050565b60006020820190508181036000830152612ce48184612c6c565b905092915050565b612cf581612ae2565b82525050565b6000602082019050612d106000830184612cec565b92915050565b600060208284031215612d2c57612d2b612807565b5b6000612d3a84828501612a7e565b91505092915050565b600080fd5b600080fd5b7f4e487b7100000000000000000000000000000000000000000000000000000000600052604160045260246000fd5b612d8582612946565b810181811067ffffffffffffffff82111715612da457612da3612d4d565b5b80604052505050565b6000612db76127fd565b9050612dc38282612d7c565b919050565b600067ffffffffffffffff821115612de357612de2612d4d565b5b612dec82612946565b9050602081019050919050565b82818337600083830152505050565b6000612e1b612e1684612dc8565b612dad565b905082815260208101848484011115612e3757612e36612d48565b5b612e42848285612df9565b509392505050565b600082601f830112612e5f57612e5e612d43565b5b8135612e6f848260208601612e08565b91505092915050565b60008060408385031215612e8f57612e8e612807565b5b600083013567ffffffffffffffff811115612ead57612eac61280c565b5b612eb985828601612e4a565b9250506020612eca858286016129c9565b9150509250929050565b612edd81612896565b8114612ee857600080fd5b50565b600081359050612efa81612ed4565b92915050565b60008060408385031215612f1757612f16612807565b5b6000612f2585828601612a7e565b9250506020612f3685828601612eeb565b9150509250929050565b600067ffffffffffffffff821115612f5b57612f5a612d4d565b5b612f6482612946565b9050602081019050919050565b6000612f84612f7f84612f40565b612dad565b905082815260208101848484011115612fa057612f9f612d48565b5b612fab848285612df9565b509392505050565b600082601f830112612fc857612fc7612d43565b5b8135612fd8848260208601612f71565b91505092915050565b60008060008060808587031215612ffb57612ffa612807565b5b600061300987828801612a7e565b945050602061301a87828801612a7e565b935050604061302b878288016129c9565b925050606085013567ffffffffffffffff81111561304c5761304b61280c565b5b61305887828801612fb3565b91505092959194509250565b6000806040838503121561307b5761307a612807565b5b600061308985828601612a7e565b925050602061309a85828601612a7e565b9150509250929050565b7f4e487b7100000000000000000000000000000000000000000000000000000000600052602260045260246000fd5b600060028204905060018216806130eb57607f821691505b6020821081036130fe576130fd6130a4565b5b50919050565b60006060820190506131196000830186612a3d565b61312660208301856128d6565b6131336040830184612a3d565b949350505050565b7f4e487b7100000000000000000000000000000000000000000000000000000000600052601160045260246000fd5b6000613175826128cc565b9150613180836128cc565b92508282019050808211156131985761319761313b565b5b92915050565b7f4e487b7100000000000000000000000000000000000000000000000000000000600052603260045260246000fd5b60006131d8826128cc565b91507fffffffffffffffffffffffffffffffffffffffffffffffffffffffffffffffff820361320a5761320961313b565b5b600182019050919050565b7f5072696365206d7573742062652067726561746572207468616e207a65726f00600082015250565b600061324b601f8361290b565b915061325682613215565b602082019050919050565b6000602082019050818103600083015261327a8161323e565b9050919050565b7f4f6e6c79207468652073656c6c65722063616e20756e6c69737420746865204e60008201527f4654000000000000000000000000000000000000000000000000000000000000602082015250565b60006132dd60228361290b565b91506132e882613281565b604082019050919050565b6000602082019050818103600083015261330c816132d0565b9050919050565b7f506c65617365207375626d6974207468652061736b696e67207072696365207460008201527f6f20636f6d706c65746520746865207075726368617365000000000000000000602082015250565b600061336f60378361290b565b915061337a82613313565b604082019050919050565b6000602082019050818103600083015261339e81613362565b9050919050565b60006133b0826128cc565b91506133bb836128cc565b92508282026133c9816128cc565b915082820484148315176133e0576133df61313b565b5b5092915050565b7f4e487b7100000000000000000000000000000000000000000000000000000000600052601260045260246000fd5b6000613421826128cc565b915061342c836128cc565b92508261343c5761343b6133e7565b5b828204905092915050565b6000613452826128cc565b915061345d836128cc565b92508282039050818111156134755761347461313b565b5b92915050565b7f4f6e6c79206f776e65722063616e2063616c6c20746869732066756e6374696f60008201527f6e00000000000000000000000000000000000000000000000000000000000000602082015250565b60006134d760218361290b565b91506134e28261347b565b604082019050919050565b60006020820190508181036000830152613506816134ca565b9050919050565b600081905092915050565b600061352382612900565b61352d818561350d565b935061353d81856020860161291c565b80840191505092915050565b60006135558285613518565b91506135618284613518565b91508190509392505050565b60008190508160005260206000209050919050565b60006020601f8301049050919050565b600082821b905092915050565b6000600883026135cf7fffffffffffffffffffffffffffffffffffffffffffffffffffffffffffffffff82613592565b6135d98683613592565b95508019841693508086168417925050509392505050565b6000819050919050565b600061361661361161360c846128cc565b6135f1565b6128cc565b9050919050565b6000819050919050565b613630836135fb565b61364461363c8261361d565b84845461359f565b825550505050565b600090565b61365961364c565b613664818484613627565b505050565b5b818110156136885761367d600082613651565b60018101905061366a565b5050565b601f8211156136cd5761369e8161356d565b6136a784613582565b810160208510156136b6578190505b6136ca6136c285613582565b830182613669565b50505b505050565b600082821c905092915050565b60006136f0600019846008026136d2565b1980831691505092915050565b600061370983836136df565b9150826002028217905092915050565b61372282612900565b67ffffffffffffffff81111561373b5761373a612d4d565b5b61374582546130d3565b61375082828561368c565b600060209050601f8311600181146137835760008415613771578287015190505b61377b85826136fd565b8655506137e3565b601f1984166137918661356d565b60005b828110156137b957848901518255600182019150602085019450602081019050613794565b868310156137d657848901516137d2601f8916826136df565b8355505b6001600288020188555050505b505050505050565b600081519050919050565b600082825260208201905092915050565b6000613812826137eb565b61381c81856137f6565b935061382c81856020860161291c565b61383581612946565b840191505092915050565b60006080820190506138556000830187612a3d565b6138626020830186612a3d565b61386f60408301856128d6565b81810360608301526138818184613807565b905095945050505050565b60008151905061389b8161283d565b92915050565b6000602082840312156138b7576138b6612807565b5b60006138c58482850161388c565b91505092915050565b60006040820190506138e36000830185612a3d565b6138f060208301846128d6565b939250505056fea264697066735822122029ac74508413cd16721f3083ca24bb033798cc51e4a25c116b9edc5970e66a9464736f6c634300081b0033",
  "linkReferences": {},
  "deployedLinkReferences": {}
}